{
  "contractName": "Shop",
  "abi": [
    {
      "inputs": [],
      "stateMutability": "nonpayable",
      "type": "constructor"
    },
    {
      "inputs": [],
      "name": "lakshit",
      "outputs": [
        {
          "internalType": "uint256",
          "name": "rollNumber",
          "type": "uint256"
        },
        {
          "internalType": "string",
          "name": "name",
          "type": "string"
        },
        {
          "internalType": "string",
          "name": "email",
          "type": "string"
        },
        {
          "internalType": "uint256",
          "name": "class",
          "type": "uint256"
        },
        {
          "internalType": "uint256",
          "name": "age",
          "type": "uint256"
        }
      ],
      "stateMutability": "view",
      "type": "function",
      "constant": true
    }
  ],
  "bytecode": "0x608060405234801561001057600080fd5b506040518060400160405280600781526020017f4c616b7368697400000000000000000000000000000000000000000000000000815250600060010190816100589190610316565b50601860006004018190555060646000800181905550600c6000600301819055506040518060400160405280601381526020017f6c616b7368697440796f706d61696c2e636f6d00000000000000000000000000815250600060020190816100c09190610316565b506103e8565b600081519050919050565b7f4e487b7100000000000000000000000000000000000000000000000000000000600052604160045260246000fd5b7f4e487b7100000000000000000000000000000000000000000000000000000000600052602260045260246000fd5b6000600282049050600182168061014757607f821691505b60208210810361015a57610159610100565b5b50919050565b60008190508160005260206000209050919050565b60006020601f8301049050919050565b600082821b905092915050565b6000600883026101c27fffffffffffffffffffffffffffffffffffffffffffffffffffffffffffffffff82610185565b6101cc8683610185565b95508019841693508086168417925050509392505050565b6000819050919050565b6000819050919050565b600061021361020e610209846101e4565b6101ee565b6101e4565b9050919050565b6000819050919050565b61022d836101f8565b6102416102398261021a565b848454610192565b825550505050565b600090565b610256610249565b610261818484610224565b505050565b5b818110156102855761027a60008261024e565b600181019050610267565b5050565b601f8211156102ca5761029b81610160565b6102a484610175565b810160208510156102b3578190505b6102c76102bf85610175565b830182610266565b50505b505050565b600082821c905092915050565b60006102ed600019846008026102cf565b1980831691505092915050565b600061030683836102dc565b9150826002028217905092915050565b61031f826100c6565b67ffffffffffffffff811115610338576103376100d1565b5b610342825461012f565b61034d828285610289565b600060209050601f831160018114610380576000841561036e578287015190505b61037885826102fa565b8655506103e0565b601f19841661038e86610160565b60005b828110156103b657848901518255600182019150602085019450602081019050610391565b868310156103d357848901516103cf601f8916826102dc565b8355505b6001600288020188555050505b505050505050565b610326806103f76000396000f3fe608060405234801561001057600080fd5b506004361061002b5760003560e01c8063f2724f1414610030575b600080fd5b610038610052565b60405161004995949392919061022f565b60405180910390f35b6000806000015490806001018054610069906102bf565b80601f0160208091040260200160405190810160405280929190818152602001828054610095906102bf565b80156100e25780601f106100b7576101008083540402835291602001916100e2565b820191906000526020600020905b8154815290600101906020018083116100c557829003601f168201915b5050505050908060020180546100f7906102bf565b80601f0160208091040260200160405190810160405280929190818152602001828054610123906102bf565b80156101705780601f1061014557610100808354040283529160200191610170565b820191906000526020600020905b81548152906001019060200180831161015357829003601f168201915b5050505050908060030154908060040154905085565b6000819050919050565b61019981610186565b82525050565b600081519050919050565b600082825260208201905092915050565b60005b838110156101d95780820151818401526020810190506101be565b60008484015250505050565b6000601f19601f8301169050919050565b60006102018261019f565b61020b81856101aa565b935061021b8185602086016101bb565b610224816101e5565b840191505092915050565b600060a0820190506102446000830188610190565b818103602083015261025681876101f6565b9050818103604083015261026a81866101f6565b90506102796060830185610190565b6102866080830184610190565b9695505050505050565b7f4e487b7100000000000000000000000000000000000000000000000000000000600052602260045260246000fd5b600060028204905060018216806102d757607f821691505b6020821081036102ea576102e9610290565b5b5091905056fea26469706673582212201db99a2cf268c64d9c02b5c1f0a0f6187cd4d73e8014dfd1d2b6da1b3b996d7a64736f6c63430008110033",
  "immutableReferences": {},
  "source": "// SPDX-License-Identifier: MIT\npragma solidity 0.8.17;\n\ncontract Shop {\n\n  struct student  {\n      uint rollNumber;\n      string name;\n      string email;\n      uint class;\n      uint age;\n  }\n\n  student public lakshit;\n\n  constructor() {\n     lakshit.name =\"Lakshit\";\n     lakshit.age = 24;\n     lakshit.rollNumber = 100;\n     lakshit.class = 12;\n     lakshit.email = \"lakshit@yopmail.com\";\n  }\n\n\n}\n",
  "sourcePath": "C:\\solidity\\contracts\\Shop.sol",
  "compiler": {
    "name": "solc",
    "version": "0.8.17+commit.8df45f5f.Emscripten.clang"
  },
  "schemaVersion": "3.4.10",
  "updatedAt": "2022-10-08T16:07:44.735Z",
  "networkType": "ethereum",
  "devdoc": {
    "kind": "dev",
    "methods": {},
    "version": 1
  },
  "userdoc": {
    "kind": "user",
    "methods": {},
    "version": 1
  }
}