{
  "contractName": "Arrays",
  "abi": [
    {
      "inputs": [],
      "stateMutability": "nonpayable",
      "type": "constructor"
    },
    {
      "inputs": [
        {
          "internalType": "uint256",
          "name": "",
          "type": "uint256"
        }
      ],
      "name": "cars",
      "outputs": [
        {
          "internalType": "string",
          "name": "",
          "type": "string"
        }
      ],
      "stateMutability": "view",
      "type": "function"
    },
    {
      "inputs": [
        {
          "internalType": "uint256",
          "name": "",
          "type": "uint256"
        }
      ],
      "name": "numbers",
      "outputs": [
        {
          "internalType": "int256",
          "name": "",
          "type": "int256"
        }
      ],
      "stateMutability": "view",
      "type": "function"
    },
    {
      "inputs": [
        {
          "internalType": "string",
          "name": "model",
          "type": "string"
        }
      ],
      "name": "setCars",
      "outputs": [],
      "stateMutability": "nonpayable",
      "type": "function"
    },
    {
      "inputs": [
        {
          "internalType": "int256",
          "name": "number",
          "type": "int256"
        }
      ],
      "name": "setNumbers",
      "outputs": [],
      "stateMutability": "nonpayable",
      "type": "function"
    },
    {
      "inputs": [],
      "name": "getAllCars",
      "outputs": [
        {
          "internalType": "string[]",
          "name": "",
          "type": "string[]"
        }
      ],
      "stateMutability": "view",
      "type": "function"
    },
    {
      "inputs": [],
      "name": "getAllNumbers",
      "outputs": [
        {
          "internalType": "int256[]",
          "name": "",
          "type": "int256[]"
        }
      ],
      "stateMutability": "view",
      "type": "function"
    }
  ],
  "bytecode": "0x608060405234801561001057600080fd5b50610bf6806100206000396000f3fe608060405234801561001057600080fd5b50600436106100625760003560e01c80631df8450a1461006757806343d1e8c61461008357806374fddd211461009f578063abfe5d57146100bd578063d39fa233146100db578063f7746e361461010b575b600080fd5b610081600480360381019061007c91906104fa565b61013b565b005b61009d60048036038101906100989190610579565b610173565b005b6100a761019f565b6040516100b49190610664565b60405180910390f35b6100c56101f7565b6040516100d291906107c7565b60405180910390f35b6100f560048036038101906100f0919061081f565b6102d0565b604051610102919061085b565b60405180910390f35b6101256004803603810190610120919061081f565b6102f4565b60405161013291906108c0565b60405180910390f35b60008190806001815401808255809150506001900390600052602060002001600090919091909150908161016f9190610aee565b5050565b600181908060018154018082558091505060019003906000526020600020016000909190919091505550565b606060018054806020026020016040519081016040528092919081815260200182805480156101ed57602002820191906000526020600020905b8154815260200190600101908083116101d9575b5050505050905090565b60606000805480602002602001604051908101604052809291908181526020016000905b828210156102c757838290600052602060002001805461023a90610911565b80601f016020809104026020016040519081016040528092919081815260200182805461026690610911565b80156102b35780601f10610288576101008083540402835291602001916102b3565b820191906000526020600020905b81548152906001019060200180831161029657829003601f168201915b50505050508152602001906001019061021b565b50505050905090565b600181815481106102e057600080fd5b906000526020600020016000915090505481565b6000818154811061030457600080fd5b90600052602060002001600091509050805461031f90610911565b80601f016020809104026020016040519081016040528092919081815260200182805461034b90610911565b80156103985780601f1061036d57610100808354040283529160200191610398565b820191906000526020600020905b81548152906001019060200180831161037b57829003601f168201915b505050505081565b6000604051905090565b600080fd5b600080fd5b600080fd5b600080fd5b6000601f19601f8301169050919050565b7f4e487b7100000000000000000000000000000000000000000000000000000000600052604160045260246000fd5b610407826103be565b810181811067ffffffffffffffff82111715610426576104256103cf565b5b80604052505050565b60006104396103a0565b905061044582826103fe565b919050565b600067ffffffffffffffff821115610465576104646103cf565b5b61046e826103be565b9050602081019050919050565b82818337600083830152505050565b600061049d6104988461044a565b61042f565b9050828152602081018484840111156104b9576104b86103b9565b5b6104c484828561047b565b509392505050565b600082601f8301126104e1576104e06103b4565b5b81356104f184826020860161048a565b91505092915050565b6000602082840312156105105761050f6103aa565b5b600082013567ffffffffffffffff81111561052e5761052d6103af565b5b61053a848285016104cc565b91505092915050565b6000819050919050565b61055681610543565b811461056157600080fd5b50565b6000813590506105738161054d565b92915050565b60006020828403121561058f5761058e6103aa565b5b600061059d84828501610564565b91505092915050565b600081519050919050565b600082825260208201905092915050565b6000819050602082019050919050565b6105db81610543565b82525050565b60006105ed83836105d2565b60208301905092915050565b6000602082019050919050565b6000610611826105a6565b61061b81856105b1565b9350610626836105c2565b8060005b8381101561065757815161063e88826105e1565b9750610649836105f9565b92505060018101905061062a565b5085935050505092915050565b6000602082019050818103600083015261067e8184610606565b905092915050565b600081519050919050565b600082825260208201905092915050565b6000819050602082019050919050565b600081519050919050565b600082825260208201905092915050565b60005b838110156106ec5780820151818401526020810190506106d1565b60008484015250505050565b6000610703826106b2565b61070d81856106bd565b935061071d8185602086016106ce565b610726816103be565b840191505092915050565b600061073d83836106f8565b905092915050565b6000602082019050919050565b600061075d82610686565b6107678185610691565b935083602082028501610779856106a2565b8060005b858110156107b557848403895281516107968582610731565b94506107a183610745565b925060208a0199505060018101905061077d565b50829750879550505050505092915050565b600060208201905081810360008301526107e18184610752565b905092915050565b6000819050919050565b6107fc816107e9565b811461080757600080fd5b50565b600081359050610819816107f3565b92915050565b600060208284031215610835576108346103aa565b5b60006108438482850161080a565b91505092915050565b61085581610543565b82525050565b6000602082019050610870600083018461084c565b92915050565b600082825260208201905092915050565b6000610892826106b2565b61089c8185610876565b93506108ac8185602086016106ce565b6108b5816103be565b840191505092915050565b600060208201905081810360008301526108da8184610887565b905092915050565b7f4e487b7100000000000000000000000000000000000000000000000000000000600052602260045260246000fd5b6000600282049050600182168061092957607f821691505b60208210810361093c5761093b6108e2565b5b50919050565b60008190508160005260206000209050919050565b60006020601f8301049050919050565b600082821b905092915050565b6000600883026109a47fffffffffffffffffffffffffffffffffffffffffffffffffffffffffffffffff82610967565b6109ae8683610967565b95508019841693508086168417925050509392505050565b6000819050919050565b60006109eb6109e66109e1846107e9565b6109c6565b6107e9565b9050919050565b6000819050919050565b610a05836109d0565b610a19610a11826109f2565b848454610974565b825550505050565b600090565b610a2e610a21565b610a398184846109fc565b505050565b5b81811015610a5d57610a52600082610a26565b600181019050610a3f565b5050565b601f821115610aa257610a7381610942565b610a7c84610957565b81016020851015610a8b578190505b610a9f610a9785610957565b830182610a3e565b50505b505050565b600082821c905092915050565b6000610ac560001984600802610aa7565b1980831691505092915050565b6000610ade8383610ab4565b9150826002028217905092915050565b610af7826106b2565b67ffffffffffffffff811115610b1057610b0f6103cf565b5b610b1a8254610911565b610b25828285610a61565b600060209050601f831160018114610b585760008415610b46578287015190505b610b508582610ad2565b865550610bb8565b601f198416610b6686610942565b60005b82811015610b8e57848901518255600182019150602085019450602081019050610b69565b86831015610bab5784890151610ba7601f891682610ab4565b8355505b6001600288020188555050505b50505050505056fea264697066735822122081006a2e1c4765ba15dce95753b22674c9089edcf3ea70b67206e670c56fd70564736f6c63430008110033",
  "immutableReferences": {},
  "source": "// SPDX-License-Identifier: MIT\npragma solidity 0.8.17;\n\ncontract Arrays {\n\n    constructor(){\n     \n   }\n\n  string[] public cars;\n\n  int[] public numbers;\n\n  function setCars(string memory model) public {\n      cars.push(model);\n  }\n\n    function setNumbers(int number) public {\n      numbers.push(number);\n  }\n\n  function getAllCars() public view returns (string [] memory){\n      return cars;\n  }\n\n  function getAllNumbers() public view returns (int[] memory){\n      return numbers;\n  }\n\n}\n",
  "sourcePath": "C:\\web3\\myFirstweb3Project\\contracts\\ArrayContract.sol",
  "compiler": {
    "name": "solc",
    "version": "0.8.17+commit.8df45f5f.Emscripten.clang"
  },
  "schemaVersion": "3.4.10",
  "updatedAt": "2022-10-09T17:23:43.407Z",
  "devdoc": {
    "kind": "dev",
    "methods": {},
    "version": 1
  },
  "userdoc": {
    "kind": "user",
    "methods": {},
    "version": 1
  }
}