{
  "contractName": "Car",
  "abi": [
    {
      "inputs": [],
      "stateMutability": "nonpayable",
      "type": "constructor"
    },
    {
      "inputs": [
        {
          "internalType": "string",
          "name": "",
          "type": "string"
        }
      ],
      "name": "cars",
      "outputs": [
        {
          "internalType": "uint256",
          "name": "number",
          "type": "uint256"
        },
        {
          "internalType": "string",
          "name": "model",
          "type": "string"
        },
        {
          "internalType": "string",
          "name": "brand",
          "type": "string"
        }
      ],
      "stateMutability": "view",
      "type": "function",
      "constant": true
    },
    {
      "inputs": [
        {
          "internalType": "string",
          "name": "carholder",
          "type": "string"
        },
        {
          "internalType": "uint256",
          "name": "number",
          "type": "uint256"
        },
        {
          "internalType": "string",
          "name": "model",
          "type": "string"
        },
        {
          "internalType": "string",
          "name": "brand",
          "type": "string"
        }
      ],
      "name": "addNewCars",
      "outputs": [],
      "stateMutability": "nonpayable",
      "type": "function"
    }
  ],
  "bytecode": "0x60806040523480156200001157600080fd5b506200001c62000106565b607b8160000181815250506040518060400160405280600481526020017f686868680000000000000000000000000000000000000000000000000000000081525081602001819052506040518060400160405280600381526020017f67676700000000000000000000000000000000000000000000000000000000008152508160400181905250806000604051620000b49062000182565b9081526020016040518091039020600082015181600001556020820151816001019081620000e3919062000413565b506040820151816002019081620000fb919062000413565b5090505050620004fa565b60405180606001604052806000815260200160608152602001606081525090565b600081905092915050565b7f6c616b7368697400000000000000000000000000000000000000000000000000600082015250565b60006200016a60078362000127565b9150620001778262000132565b600782019050919050565b60006200018f826200015b565b9150819050919050565b600081519050919050565b7f4e487b7100000000000000000000000000000000000000000000000000000000600052604160045260246000fd5b7f4e487b7100000000000000000000000000000000000000000000000000000000600052602260045260246000fd5b600060028204905060018216806200021b57607f821691505b602082108103620002315762000230620001d3565b5b50919050565b60008190508160005260206000209050919050565b60006020601f8301049050919050565b600082821b905092915050565b6000600883026200029b7fffffffffffffffffffffffffffffffffffffffffffffffffffffffffffffffff826200025c565b620002a786836200025c565b95508019841693508086168417925050509392505050565b6000819050919050565b6000819050919050565b6000620002f4620002ee620002e884620002bf565b620002c9565b620002bf565b9050919050565b6000819050919050565b6200031083620002d3565b620003286200031f82620002fb565b84845462000269565b825550505050565b600090565b6200033f62000330565b6200034c81848462000305565b505050565b5b8181101562000374576200036860008262000335565b60018101905062000352565b5050565b601f821115620003c3576200038d8162000237565b62000398846200024c565b81016020851015620003a8578190505b620003c0620003b7856200024c565b83018262000351565b50505b505050565b600082821c905092915050565b6000620003e860001984600802620003c8565b1980831691505092915050565b6000620004038383620003d5565b9150826002028217905092915050565b6200041e8262000199565b67ffffffffffffffff8111156200043a5762000439620001a4565b5b62000446825462000202565b6200045382828562000378565b600060209050601f8311600181146200048b576000841562000476578287015190505b620004828582620003f5565b865550620004f2565b601f1984166200049b8662000237565b60005b82811015620004c5578489015182556001820191506020850194506020810190506200049e565b86831015620004e55784890151620004e1601f891682620003d5565b8355505b6001600288020188555050505b505050505050565b61094b806200050a6000396000f3fe608060405234801561001057600080fd5b50600436106100365760003560e01c806341a2d1801461003b578063953419971461006d575b600080fd5b610055600480360381019061005091906103d7565b610089565b604051610064939291906104b8565b60405180910390f35b61008760048036038101906100829190610529565b6101d9565b005b6000818051602081018201805184825260208301602085012081835280955050505050506000915090508060000154908060010180546100c890610613565b80601f01602080910402602001604051908101604052809291908181526020018280546100f490610613565b80156101415780601f1061011657610100808354040283529160200191610141565b820191906000526020600020905b81548152906001019060200180831161012457829003601f168201915b50505050509080600201805461015690610613565b80601f016020809104026020016040519081016040528092919081815260200182805461018290610613565b80156101cf5780601f106101a4576101008083540402835291602001916101cf565b820191906000526020600020905b8154815290600101906020018083116101b257829003601f168201915b5050505050905083565b6101e161025c565b838160000181815250508281602001819052508181604001819052508060008660405161020e9190610680565b908152602001604051809103902060008201518160000155602082015181600101908161023b9190610843565b5060408201518160020190816102519190610843565b509050505050505050565b60405180606001604052806000815260200160608152602001606081525090565b6000604051905090565b600080fd5b600080fd5b600080fd5b600080fd5b6000601f19601f8301169050919050565b7f4e487b7100000000000000000000000000000000000000000000000000000000600052604160045260246000fd5b6102e48261029b565b810181811067ffffffffffffffff82111715610303576103026102ac565b5b80604052505050565b600061031661027d565b905061032282826102db565b919050565b600067ffffffffffffffff821115610342576103416102ac565b5b61034b8261029b565b9050602081019050919050565b82818337600083830152505050565b600061037a61037584610327565b61030c565b90508281526020810184848401111561039657610395610296565b5b6103a1848285610358565b509392505050565b600082601f8301126103be576103bd610291565b5b81356103ce848260208601610367565b91505092915050565b6000602082840312156103ed576103ec610287565b5b600082013567ffffffffffffffff81111561040b5761040a61028c565b5b610417848285016103a9565b91505092915050565b6000819050919050565b61043381610420565b82525050565b600081519050919050565b600082825260208201905092915050565b60005b83811015610473578082015181840152602081019050610458565b60008484015250505050565b600061048a82610439565b6104948185610444565b93506104a4818560208601610455565b6104ad8161029b565b840191505092915050565b60006060820190506104cd600083018661042a565b81810360208301526104df818561047f565b905081810360408301526104f3818461047f565b9050949350505050565b61050681610420565b811461051157600080fd5b50565b600081359050610523816104fd565b92915050565b6000806000806080858703121561054357610542610287565b5b600085013567ffffffffffffffff8111156105615761056061028c565b5b61056d878288016103a9565b945050602061057e87828801610514565b935050604085013567ffffffffffffffff81111561059f5761059e61028c565b5b6105ab878288016103a9565b925050606085013567ffffffffffffffff8111156105cc576105cb61028c565b5b6105d8878288016103a9565b91505092959194509250565b7f4e487b7100000000000000000000000000000000000000000000000000000000600052602260045260246000fd5b6000600282049050600182168061062b57607f821691505b60208210810361063e5761063d6105e4565b5b50919050565b600081905092915050565b600061065a82610439565b6106648185610644565b9350610674818560208601610455565b80840191505092915050565b600061068c828461064f565b915081905092915050565b60008190508160005260206000209050919050565b60006020601f8301049050919050565b600082821b905092915050565b6000600883026106f97fffffffffffffffffffffffffffffffffffffffffffffffffffffffffffffffff826106bc565b61070386836106bc565b95508019841693508086168417925050509392505050565b6000819050919050565b600061074061073b61073684610420565b61071b565b610420565b9050919050565b6000819050919050565b61075a83610725565b61076e61076682610747565b8484546106c9565b825550505050565b600090565b610783610776565b61078e818484610751565b505050565b5b818110156107b2576107a760008261077b565b600181019050610794565b5050565b601f8211156107f7576107c881610697565b6107d1846106ac565b810160208510156107e0578190505b6107f46107ec856106ac565b830182610793565b50505b505050565b600082821c905092915050565b600061081a600019846008026107fc565b1980831691505092915050565b60006108338383610809565b9150826002028217905092915050565b61084c82610439565b67ffffffffffffffff811115610865576108646102ac565b5b61086f8254610613565b61087a8282856107b6565b600060209050601f8311600181146108ad576000841561089b578287015190505b6108a58582610827565b86555061090d565b601f1984166108bb86610697565b60005b828110156108e3578489015182556001820191506020850194506020810190506108be565b8683101561090057848901516108fc601f891682610809565b8355505b6001600288020188555050505b50505050505056fea264697066735822122055ac15cafd3fa49ae749f94842a43e859bc36a8870b2c3be62b49f7331df4e9364736f6c63430008110033",
  "immutableReferences": {},
  "source": "// SPDX-License-Identifier: MIT\npragma solidity 0.8.17;\n\ncontract Car {\n  struct car {\n    uint number;\n    string model;\n    string brand;\n  }\n\n   mapping (string => car) public cars;\n\n    constructor(){\n        car memory newcar;\n        newcar.number = 123;\n        newcar.model = \"hhhh\";\n        newcar.brand = \"ggg\";\n        cars[\"lakshit\"] = newcar;\n   }\n\n   function addNewCars(string memory carholder, uint number,string memory model,string memory brand) public {\n      car memory newcar;\n      newcar.number = number;\n      newcar.model = model;\n      newcar.brand = brand;\n      cars[carholder] = newcar;\n   }\n\n}\n",
  "sourcePath": "C:\\web3\\myFirstweb3Project\\contracts\\Car.sol",
  "compiler": {
    "name": "solc",
    "version": "0.8.17+commit.8df45f5f.Emscripten.clang"
  },
  "schemaVersion": "3.4.10",
  "updatedAt": "2022-10-09T17:23:52.632Z",
  "networkType": "ethereum",
  "devdoc": {
    "kind": "dev",
    "methods": {},
    "version": 1
  },
  "userdoc": {
    "kind": "user",
    "methods": {},
    "version": 1
  }
}